{
  "contractName": "Graffiti",
  "abi": [
    {
      "inputs": [],
      "payable": false,
      "stateMutability": "nonpayable",
      "type": "constructor"
    },
    {
      "constant": true,
      "inputs": [
        {
          "internalType": "uint256",
          "name": "",
          "type": "uint256"
        }
      ],
      "name": "painters",
      "outputs": [
        {
          "internalType": "uint256",
          "name": "id",
          "type": "uint256"
        },
        {
          "internalType": "string",
          "name": "name",
          "type": "string"
        },
        {
          "internalType": "string",
          "name": "paintContent",
          "type": "string"
        }
      ],
      "payable": false,
      "stateMutability": "view",
      "type": "function"
    },
    {
      "constant": true,
      "inputs": [],
      "name": "paintersCount",
      "outputs": [
        {
          "internalType": "uint256",
          "name": "",
          "type": "uint256"
        }
      ],
      "payable": false,
      "stateMutability": "view",
      "type": "function"
    }
  ],
  "bytecode": "0x608060405234801561001057600080fd5b506100556040518060400160405280600981526020017f5061696e7465722031000000000000000000000000000000000000000000000081525061009e60201b60201c565b6100996040518060400160405280600981526020017f5061696e7465722032000000000000000000000000000000000000000000000081525061009e60201b60201c565b6101df565b6001600081548092919060010191905055506040518060600160405280600154815260200182815260200160405180602001604052806000815250815250600080600154815260200190815260200160002060008201518160000155602082015181600101908051906020019061011692919061013a565b50604082015181600201908051906020019061013392919061013a565b5090505050565b828054600181600116156101000203166002900490600052602060002090601f016020900481019282601f1061017b57805160ff19168380011785556101a9565b828001600101855582156101a9579182015b828111156101a857825182559160200191906001019061018d565b5b5090506101b691906101ba565b5090565b6101dc91905b808211156101d85760008160009055506001016101c0565b5090565b90565b610308806101ee6000396000f3fe608060405234801561001057600080fd5b50600436106100365760003560e01c8063af3e8e681461003b578063f31cd4e214610155575b600080fd5b6100676004803603602081101561005157600080fd5b8101908080359060200190929190505050610173565b604051808481526020018060200180602001838103835285818151815260200191508051906020019080838360005b838110156100b1578082015181840152602081019050610096565b50505050905090810190601f1680156100de5780820380516001836020036101000a031916815260200191505b50838103825284818151815260200191508051906020019080838360005b838110156101175780820151818401526020810190506100fc565b50505050905090810190601f1680156101445780820380516001836020036101000a031916815260200191505b509550505050505060405180910390f35b61015d6102cd565b6040518082815260200191505060405180910390f35b6000602052806000526040600020600091509050806000015490806001018054600181600116156101000203166002900480601f0160208091040260200160405190810160405280929190818152602001828054600181600116156101000203166002900480156102255780601f106101fa57610100808354040283529160200191610225565b820191906000526020600020905b81548152906001019060200180831161020857829003601f168201915b505050505090806002018054600181600116156101000203166002900480601f0160208091040260200160405190810160405280929190818152602001828054600181600116156101000203166002900480156102c35780601f10610298576101008083540402835291602001916102c3565b820191906000526020600020905b8154815290600101906020018083116102a657829003601f168201915b5050505050905083565b6001548156fea265627a7a72315820a508b48e96f2b23c4db53b154349761b5cf4a84fdabb48061f0c5caead97010864736f6c63430005100032",
  "source": "// SPDX-License-Identifier: MIT\npragma solidity >=0.4.22 <0.8.0;\n\ncontract Graffiti{\n    // Model a painter\n    struct Painter{\n        uint id;\n        string name;\n        string paintContent;\n    }\n    // Store Painters\n    // Fetch Painter\n    mapping(uint => Painter) public painters;\n    // Store Painters Count\n    uint public paintersCount;\n    // Constructor\n\n    constructor() public {\n        addPainter(\"Painter 1\");\n        addPainter(\"Painter 2\");\n    }\n\n    function addPainter (string memory _name) private{\n        paintersCount++;\n        painters[paintersCount] = Painter(paintersCount, _name, \"\");\n    }\n}",
  "sourcePath": "/Users/jilllilim/GraffitiDAPP/contracts/Graffiti.sol",
  "compiler": {
    "name": "solc",
    "version": "0.5.16+commit.9c3226ce.Emscripten.clang"
  },
  "schemaVersion": "3.3.0",
  "updatedAt": "2020-10-15T19:51:00.706Z",
  "networkType": "ethereum",
  "devdoc": {
    "methods": {}
  },
  "userdoc": {
    "methods": {}
  }
}