{
  "contractName": "Graffiti",
  "abi": [
    {
      "inputs": [],
      "payable": false,
      "stateMutability": "nonpayable",
      "type": "constructor"
    },
    {
      "constant": true,
      "inputs": [
        {
          "internalType": "address",
          "name": "",
          "type": "address"
        }
      ],
      "name": "observers",
      "outputs": [
        {
          "internalType": "bool",
          "name": "",
          "type": "bool"
        }
      ],
      "payable": false,
      "stateMutability": "view",
      "type": "function"
    },
    {
      "constant": true,
      "inputs": [
        {
          "internalType": "uint256",
          "name": "",
          "type": "uint256"
        }
      ],
      "name": "painters",
      "outputs": [
        {
          "internalType": "uint256",
          "name": "id",
          "type": "uint256"
        },
        {
          "internalType": "address",
          "name": "name",
          "type": "address"
        },
        {
          "internalType": "string",
          "name": "paintContent",
          "type": "string"
        }
      ],
      "payable": false,
      "stateMutability": "view",
      "type": "function"
    },
    {
      "constant": true,
      "inputs": [],
      "name": "paintersCount",
      "outputs": [
        {
          "internalType": "uint256",
          "name": "",
          "type": "uint256"
        }
      ],
      "payable": false,
      "stateMutability": "view",
      "type": "function"
    },
    {
      "constant": false,
      "inputs": [
        {
          "internalType": "uint256",
          "name": "_painterId",
          "type": "uint256"
        },
        {
          "internalType": "string",
          "name": "content",
          "type": "string"
        }
      ],
      "name": "paint",
      "outputs": [],
      "payable": false,
      "stateMutability": "nonpayable",
      "type": "function"
    }
  ],
  "bytecode": "0x608060405234801561001057600080fd5b506000600160008081526020019081526020016000206000018190555073adb766cd8c67a91e07738e4e1d8719559975da6f6001600080815260200190815260200160002060010160006101000a81548173ffffffffffffffffffffffffffffffffffffffff021916908373ffffffffffffffffffffffffffffffffffffffff1602179055506040518060400160405280600581526020017f48656c6c6f0000000000000000000000000000000000000000000000000000008152506001600080815260200190815260200160002060020190805190602001906100f5929190610103565b5060006002819055506101a8565b828054600181600116156101000203166002900490600052602060002090601f016020900481019282601f1061014457805160ff1916838001178555610172565b82800160010185558215610172579182015b82811115610171578251825591602001919060010190610156565b5b50905061017f9190610183565b5090565b6101a591905b808211156101a1576000816000905550600101610189565b5090565b90565b61063f806101b76000396000f3fe608060405234801561001057600080fd5b506004361061004c5760003560e01c80636fca3ff914610051578063a8d71d2f14610116578063af3e8e6814610172578063f31cd4e214610253575b600080fd5b6101146004803603604081101561006757600080fd5b81019080803590602001909291908035906020019064010000000081111561008e57600080fd5b8201836020820111156100a057600080fd5b803590602001918460018302840111640100000000831117156100c257600080fd5b91908080601f016020809104026020016040519081016040528093929190818152602001838380828437600081840152601f19601f820116905080830192505050505050509192919290505050610271565b005b6101586004803603602081101561012c57600080fd5b81019080803573ffffffffffffffffffffffffffffffffffffffff1690602001909291905050506103dd565b604051808215151515815260200191505060405180910390f35b61019e6004803603602081101561018857600080fd5b81019080803590602001909291905050506103fd565b604051808481526020018373ffffffffffffffffffffffffffffffffffffffff1673ffffffffffffffffffffffffffffffffffffffff16815260200180602001828103825283818151815260200191508051906020019080838360005b838110156102165780820151818401526020810190506101fb565b50505050905090810190601f1680156102435780820380516001836020036101000a031916815260200191505b5094505050505060405180910390f35b61025b6104df565b6040518082815260200191505060405180910390f35b600082101561027f57600080fd5b600254821161030d57806001600084815260200190815260200160002060020190805190602001906102b29291906104e5565b50336001600084815260200190815260200160002060010160006101000a81548173ffffffffffffffffffffffffffffffffffffffff021916908373ffffffffffffffffffffffffffffffffffffffff1602179055506103d9565b600260008154809291906001019190505550604051806060016040528060025481526020013373ffffffffffffffffffffffffffffffffffffffff168152602001828152506001600060025481526020019081526020016000206000820151816000015560208201518160010160006101000a81548173ffffffffffffffffffffffffffffffffffffffff021916908373ffffffffffffffffffffffffffffffffffffffff16021790555060408201518160020190805190602001906103d4929190610565565b509050505b5050565b60006020528060005260406000206000915054906101000a900460ff1681565b60016020528060005260406000206000915090508060000154908060010160009054906101000a900473ffffffffffffffffffffffffffffffffffffffff1690806002018054600181600116156101000203166002900480601f0160208091040260200160405190810160405280929190818152602001828054600181600116156101000203166002900480156104d55780601f106104aa576101008083540402835291602001916104d5565b820191906000526020600020905b8154815290600101906020018083116104b857829003601f168201915b5050505050905083565b60025481565b828054600181600116156101000203166002900490600052602060002090601f016020900481019282601f1061052657805160ff1916838001178555610554565b82800160010185558215610554579182015b82811115610553578251825591602001919060010190610538565b5b50905061056191906105e5565b5090565b828054600181600116156101000203166002900490600052602060002090601f016020900481019282601f106105a657805160ff19168380011785556105d4565b828001600101855582156105d4579182015b828111156105d35782518255916020019190600101906105b8565b5b5090506105e191906105e5565b5090565b61060791905b808211156106035760008160009055506001016105eb565b5090565b9056fea265627a7a72315820b4661f293fc93b50bb07b6cfd1b3c73c085384a028eb472b120a336e572c866664736f6c63430005100032",
  "source": "// SPDX-License-Identifier: MIT\npragma solidity >=0.4.22 <0.8.0;\n\ncontract Graffiti{\n    // Model a painter\n    struct Painter{\n        uint id;\n        address name;\n        string paintContent;\n    }\n    // Store accounts that have voted\n    mapping(address => bool) public observers;\n    // Store Painters\n    // Fetch Painter\n    mapping(uint => Painter) public painters;\n    // Store Painters Count\n    uint public paintersCount;\n    // uint public pixel_length = 10;\n    // uint public pixel_width = 15;\n    // Constructor\n\n    constructor() public {\n        // for(uint i = 0; i < pixel_length; i++){\n        //     for(uint j = 0; j < pixel_width; j++){\n        //         addPainter([i,j],\"\");\n        //     }\n        // }\n        painters[0].id = 0;\n        painters[0].name = 0xADb766CD8c67A91e07738E4e1D8719559975DA6f;\n        painters[0].paintContent = \"Hello\";\n        paintersCount = 0;\n    }\n\n    function paint(uint _painterId, string memory content) public{\n        //check painted\n        // require(!observers[msg.sender]);\n\n        //require valid paint\n        require(_painterId >= 0);\n\n        // string storage sender = realaddress[msg.sender];\n\n        // record that painter has painted? maynot be used.\n        // observers[msg.sender] = true;\n        \n        // update paint content\n        if (_painterId <= paintersCount){\n            painters[_painterId].paintContent = content;\n            painters[_painterId].name = msg.sender;\n        }else{\n            paintersCount++;\n            painters[paintersCount] = Painter(paintersCount, msg.sender, content);\n        }\n            \n    }\n\n\n    // web3 accounts getting:\n    // web3.eth.getAccounts()\n    // get the first account:\n    // web3.eth.getAccounts().then(function(i){Acc = i})\n    // Acc[0]\n}",
  "sourcePath": "/Users/jilllilim/GraffitiDAPP/contracts/Graffiti.sol",
  "compiler": {
    "name": "solc",
    "version": "0.5.16+commit.9c3226ce.Emscripten.clang"
  },
  "schemaVersion": "3.3.0",
  "updatedAt": "2021-05-05T20:56:41.120Z",
  "networkType": "ethereum",
  "devdoc": {
    "methods": {}
  },
  "userdoc": {
    "methods": {}
  }
}